{
  "contractName": "TicketSale",
  "abi": [
    {
      "inputs": [
        {
          "internalType": "uint256",
          "name": "_numTickets",
          "type": "uint256"
        },
        {
          "internalType": "uint256",
          "name": "_price",
          "type": "uint256"
        }
      ],
      "stateMutability": "nonpayable",
      "type": "constructor"
    },
    {
      "anonymous": false,
      "inputs": [
        {
          "indexed": true,
          "internalType": "address",
          "name": "buyer",
          "type": "address"
        },
        {
          "indexed": true,
          "internalType": "address",
          "name": "seller",
          "type": "address"
        },
        {
          "indexed": false,
          "internalType": "uint256",
          "name": "ticketId",
          "type": "uint256"
        },
        {
          "indexed": false,
          "internalType": "uint256",
          "name": "price",
          "type": "uint256"
        }
      ],
      "name": "ResaleAccepted",
      "type": "event"
    },
    {
      "anonymous": false,
      "inputs": [
        {
          "indexed": true,
          "internalType": "address",
          "name": "accepter",
          "type": "address"
        },
        {
          "indexed": true,
          "internalType": "address",
          "name": "partner",
          "type": "address"
        },
        {
          "indexed": false,
          "internalType": "uint256",
          "name": "myTicketId",
          "type": "uint256"
        },
        {
          "indexed": false,
          "internalType": "uint256",
          "name": "partnerTicketId",
          "type": "uint256"
        }
      ],
      "name": "SwapAccepted",
      "type": "event"
    },
    {
      "anonymous": false,
      "inputs": [
        {
          "indexed": true,
          "internalType": "address",
          "name": "offerer",
          "type": "address"
        },
        {
          "indexed": true,
          "internalType": "address",
          "name": "partner",
          "type": "address"
        },
        {
          "indexed": false,
          "internalType": "uint256",
          "name": "ticketId",
          "type": "uint256"
        }
      ],
      "name": "SwapOffered",
      "type": "event"
    },
    {
      "anonymous": false,
      "inputs": [
        {
          "indexed": true,
          "internalType": "address",
          "name": "buyer",
          "type": "address"
        },
        {
          "indexed": false,
          "internalType": "uint256",
          "name": "ticketId",
          "type": "uint256"
        }
      ],
      "name": "TicketPurchased",
      "type": "event"
    },
    {
      "anonymous": false,
      "inputs": [
        {
          "indexed": true,
          "internalType": "address",
          "name": "owner",
          "type": "address"
        },
        {
          "indexed": false,
          "internalType": "uint256",
          "name": "ticketId",
          "type": "uint256"
        },
        {
          "indexed": false,
          "internalType": "uint256",
          "name": "price",
          "type": "uint256"
        }
      ],
      "name": "TicketResaled",
      "type": "event"
    },
    {
      "anonymous": false,
      "inputs": [
        {
          "indexed": true,
          "internalType": "address",
          "name": "owner",
          "type": "address"
        },
        {
          "indexed": false,
          "internalType": "uint256",
          "name": "ticketId",
          "type": "uint256"
        }
      ],
      "name": "TicketReturned",
      "type": "event"
    },
    {
      "inputs": [],
      "name": "numTickets",
      "outputs": [
        {
          "internalType": "uint256",
          "name": "",
          "type": "uint256"
        }
      ],
      "stateMutability": "view",
      "type": "function",
      "constant": true
    },
    {
      "inputs": [],
      "name": "owner",
      "outputs": [
        {
          "internalType": "address",
          "name": "",
          "type": "address"
        }
      ],
      "stateMutability": "view",
      "type": "function",
      "constant": true
    },
    {
      "inputs": [
        {
          "internalType": "uint256",
          "name": "",
          "type": "uint256"
        }
      ],
      "name": "resaleTickets",
      "outputs": [
        {
          "internalType": "uint256",
          "name": "",
          "type": "uint256"
        }
      ],
      "stateMutability": "view",
      "type": "function",
      "constant": true
    },
    {
      "inputs": [
        {
          "internalType": "address",
          "name": "",
          "type": "address"
        }
      ],
      "name": "swapOffers",
      "outputs": [
        {
          "internalType": "address",
          "name": "",
          "type": "address"
        }
      ],
      "stateMutability": "view",
      "type": "function",
      "constant": true
    },
    {
      "inputs": [
        {
          "internalType": "uint256",
          "name": "",
          "type": "uint256"
        }
      ],
      "name": "ticketOwners",
      "outputs": [
        {
          "internalType": "address",
          "name": "",
          "type": "address"
        }
      ],
      "stateMutability": "view",
      "type": "function",
      "constant": true
    },
    {
      "inputs": [],
      "name": "ticketPrice",
      "outputs": [
        {
          "internalType": "uint256",
          "name": "",
          "type": "uint256"
        }
      ],
      "stateMutability": "view",
      "type": "function",
      "constant": true
    },
    {
      "inputs": [
        {
          "internalType": "address",
          "name": "",
          "type": "address"
        }
      ],
      "name": "ticketsOwned",
      "outputs": [
        {
          "internalType": "uint256",
          "name": "",
          "type": "uint256"
        }
      ],
      "stateMutability": "view",
      "type": "function",
      "constant": true
    },
    {
      "stateMutability": "payable",
      "type": "receive",
      "payable": true
    },
    {
      "inputs": [
        {
          "internalType": "uint256",
          "name": "ticketId",
          "type": "uint256"
        }
      ],
      "name": "buyTicket",
      "outputs": [],
      "stateMutability": "payable",
      "type": "function",
      "payable": true
    },
    {
      "inputs": [
        {
          "internalType": "address",
          "name": "person",
          "type": "address"
        }
      ],
      "name": "getTicketOf",
      "outputs": [
        {
          "internalType": "uint256",
          "name": "",
          "type": "uint256"
        }
      ],
      "stateMutability": "view",
      "type": "function",
      "constant": true
    },
    {
      "inputs": [
        {
          "internalType": "uint256",
          "name": "ticketId",
          "type": "uint256"
        }
      ],
      "name": "offerSwap",
      "outputs": [],
      "stateMutability": "nonpayable",
      "type": "function"
    },
    {
      "inputs": [
        {
          "internalType": "uint256",
          "name": "partnerTicketId",
          "type": "uint256"
        }
      ],
      "name": "acceptSwap",
      "outputs": [],
      "stateMutability": "nonpayable",
      "type": "function"
    },
    {
      "inputs": [
        {
          "internalType": "uint256",
          "name": "price",
          "type": "uint256"
        }
      ],
      "name": "resaleTicket",
      "outputs": [],
      "stateMutability": "nonpayable",
      "type": "function"
    },
    {
      "inputs": [
        {
          "internalType": "uint256",
          "name": "ticketId",
          "type": "uint256"
        }
      ],
      "name": "acceptResale",
      "outputs": [],
      "stateMutability": "payable",
      "type": "function",
      "payable": true
    },
    {
      "inputs": [],
      "name": "checkResale",
      "outputs": [
        {
          "internalType": "uint256[]",
          "name": "",
          "type": "uint256[]"
        }
      ],
      "stateMutability": "view",
      "type": "function",
      "constant": true
    },
    {
      "inputs": [],
      "name": "returnTicket",
      "outputs": [],
      "stateMutability": "nonpayable",
      "type": "function"
    }
  ],
  "bytecode": "0x60806040523480156200001157600080fd5b5060405162002895380380620028958339818101604052810190620000379190620000cd565b336000806101000a81548173ffffffffffffffffffffffffffffffffffffffff021916908373ffffffffffffffffffffffffffffffffffffffff1602179055508060018190555081600281905550505062000114565b600080fd5b6000819050919050565b620000a78162000092565b8114620000b357600080fd5b50565b600081519050620000c7816200009c565b92915050565b60008060408385031215620000e757620000e66200008d565b5b6000620000f785828601620000b6565b92505060206200010a85828601620000b6565b9150509250929050565b61277180620001246000396000f3fe6080604052600436106100ec5760003560e01c8063675b2e741161008a578063951e202111610059578063951e2021146102d1578063a3c1a1fe1461030e578063c4a4be8314610337578063eb2dbcf614610362576100f3565b8063675b2e741461023157806367dd74ca1461026e5780638da5cb5b1461028a578063943ba212146102b5576100f3565b80632e62864a116100c65780632e62864a14610189578063353d90ec146101c6578063406b2c2c146101f15780634a52bba51461021a576100f3565b80630412f4ab146100f85780631209b1f6146101355780631bf3300414610160576100f3565b366100f357005b600080fd5b34801561010457600080fd5b5061011f600480360381019061011a9190611bc2565b61039f565b60405161012c9190611c08565b60405180910390f35b34801561014157600080fd5b5061014a6103e8565b6040516101579190611c08565b60405180910390f35b34801561016c57600080fd5b5061018760048036038101906101829190611c4f565b6103ee565b005b34801561019557600080fd5b506101b060048036038101906101ab9190611bc2565b61087a565b6040516101bd9190611c8b565b60405180910390f35b3480156101d257600080fd5b506101db6108ad565b6040516101e89190611c08565b60405180910390f35b3480156101fd57600080fd5b5061021860048036038101906102139190611c4f565b6108b3565b005b34801561022657600080fd5b5061022f610c32565b005b34801561023d57600080fd5b5061025860048036038101906102539190611c4f565b610f92565b6040516102659190611c08565b60405180910390f35b61028860048036038101906102839190611c4f565b610faa565b005b34801561029657600080fd5b5061029f61132c565b6040516102ac9190611c8b565b60405180910390f35b6102cf60048036038101906102ca9190611c4f565b611350565b005b3480156102dd57600080fd5b506102f860048036038101906102f39190611bc2565b6118b3565b6040516103059190611c08565b60405180910390f35b34801561031a57600080fd5b5061033560048036038101906103309190611c4f565b6118cb565b005b34801561034357600080fd5b5061034c611a14565b6040516103599190611d64565b60405180910390f35b34801561036e57600080fd5b5061038960048036038101906103849190611c4f565b611b2c565b6040516103969190611c8b565b60405180910390f35b6000600460008373ffffffffffffffffffffffffffffffffffffffff1673ffffffffffffffffffffffffffffffffffffffff168152602001908152602001600020549050919050565b60015481565b60006003600083815260200190815260200160002060009054906101000a900473ffffffffffffffffffffffffffffffffffffffff1690508073ffffffffffffffffffffffffffffffffffffffff16600560003373ffffffffffffffffffffffffffffffffffffffff1673ffffffffffffffffffffffffffffffffffffffff16815260200190815260200160002060009054906101000a900473ffffffffffffffffffffffffffffffffffffffff1673ffffffffffffffffffffffffffffffffffffffff16146104f3576040517f08c379a00000000000000000000000000000000000000000000000000000000081526004016104ea90611de3565b60405180910390fd5b6000600460008373ffffffffffffffffffffffffffffffffffffffff1673ffffffffffffffffffffffffffffffffffffffff1681526020019081526020016000205403610575576040517f08c379a000000000000000000000000000000000000000000000000000000000815260040161056c90611e4f565b60405180910390fd5b6000600460003373ffffffffffffffffffffffffffffffffffffffff1673ffffffffffffffffffffffffffffffffffffffff16815260200190815260200160002054036105f7576040517f08c379a00000000000000000000000000000000000000000000000000000000081526004016105ee90611ebb565b60405180910390fd5b6000600460003373ffffffffffffffffffffffffffffffffffffffff1673ffffffffffffffffffffffffffffffffffffffff1681526020019081526020016000205490506000600460008473ffffffffffffffffffffffffffffffffffffffff1673ffffffffffffffffffffffffffffffffffffffff16815260200190815260200160002054905080600460003373ffffffffffffffffffffffffffffffffffffffff1673ffffffffffffffffffffffffffffffffffffffff1681526020019081526020016000208190555081600460008573ffffffffffffffffffffffffffffffffffffffff1673ffffffffffffffffffffffffffffffffffffffff16815260200190815260200160002081905550826003600084815260200190815260200160002060006101000a81548173ffffffffffffffffffffffffffffffffffffffff021916908373ffffffffffffffffffffffffffffffffffffffff160217905550336003600083815260200190815260200160002060006101000a81548173ffffffffffffffffffffffffffffffffffffffff021916908373ffffffffffffffffffffffffffffffffffffffff160217905550600560003373ffffffffffffffffffffffffffffffffffffffff1673ffffffffffffffffffffffffffffffffffffffff16815260200190815260200160002060006101000a81549073ffffffffffffffffffffffffffffffffffffffff02191690558273ffffffffffffffffffffffffffffffffffffffff163373ffffffffffffffffffffffffffffffffffffffff167f37578ceed127276672e60dff20964adc31b310721884d9797f5d273a0e08a83f848460405161086c929190611edb565b60405180910390a350505050565b60056020528060005260406000206000915054906101000a900473ffffffffffffffffffffffffffffffffffffffff1681565b60025481565b6000600460003373ffffffffffffffffffffffffffffffffffffffff1673ffffffffffffffffffffffffffffffffffffffff1681526020019081526020016000205403610935576040517f08c379a000000000000000000000000000000000000000000000000000000000815260040161092c90611ebb565b60405180910390fd5b600073ffffffffffffffffffffffffffffffffffffffff166003600083815260200190815260200160002060009054906101000a900473ffffffffffffffffffffffffffffffffffffffff1673ffffffffffffffffffffffffffffffffffffffff16036109d7576040517f08c379a00000000000000000000000000000000000000000000000000000000081526004016109ce90611f50565b60405180910390fd5b60006003600083815260200190815260200160002060009054906101000a900473ffffffffffffffffffffffffffffffffffffffff1690503373ffffffffffffffffffffffffffffffffffffffff168173ffffffffffffffffffffffffffffffffffffffff1603610a7d576040517f08c379a0000000000000000000000000000000000000000000000000000000008152600401610a7490611fbc565b60405180910390fd5b600073ffffffffffffffffffffffffffffffffffffffff16600560008373ffffffffffffffffffffffffffffffffffffffff1673ffffffffffffffffffffffffffffffffffffffff16815260200190815260200160002060009054906101000a900473ffffffffffffffffffffffffffffffffffffffff1673ffffffffffffffffffffffffffffffffffffffff1614610b4b576040517f08c379a0000000000000000000000000000000000000000000000000000000008152600401610b4290612028565b60405180910390fd5b33600560008373ffffffffffffffffffffffffffffffffffffffff1673ffffffffffffffffffffffffffffffffffffffff16815260200190815260200160002060006101000a81548173ffffffffffffffffffffffffffffffffffffffff021916908373ffffffffffffffffffffffffffffffffffffffff1602179055508073ffffffffffffffffffffffffffffffffffffffff163373ffffffffffffffffffffffffffffffffffffffff167f17bcfa6df77023ef5e553b5a46c5b0ce96bfac1ecc2f01473bc689b5ed41241f84604051610c269190611c08565b60405180910390a35050565b6000600460003373ffffffffffffffffffffffffffffffffffffffff1673ffffffffffffffffffffffffffffffffffffffff16815260200190815260200160002054905060008103610cb9576040517f08c379a0000000000000000000000000000000000000000000000000000000008152600401610cb090611ebb565b60405180910390fd5b6000600a600154610cca91906120a6565b9050600081600154610cdc91906120d7565b90508181610cea919061210b565b471015610d2c576040517f08c379a0000000000000000000000000000000000000000000000000000000008152600401610d239061218b565b60405180910390fd5b6000600460003373ffffffffffffffffffffffffffffffffffffffff1673ffffffffffffffffffffffffffffffffffffffff1681526020019081526020016000208190555060006003600085815260200190815260200160002060006101000a81548173ffffffffffffffffffffffffffffffffffffffff021916908373ffffffffffffffffffffffffffffffffffffffff16021790555060003373ffffffffffffffffffffffffffffffffffffffff1682604051610dea906121dc565b60006040518083038185875af1925050503d8060008114610e27576040519150601f19603f3d011682016040523d82523d6000602084013e610e2c565b606091505b5050905080610e70576040517f08c379a0000000000000000000000000000000000000000000000000000000008152600401610e679061223d565b60405180910390fd5b60008060009054906101000a900473ffffffffffffffffffffffffffffffffffffffff1673ffffffffffffffffffffffffffffffffffffffff1684604051610eb7906121dc565b60006040518083038185875af1925050503d8060008114610ef4576040519150601f19603f3d011682016040523d82523d6000602084013e610ef9565b606091505b5050905080610f3d576040517f08c379a0000000000000000000000000000000000000000000000000000000008152600401610f34906122a9565b60405180910390fd5b3373ffffffffffffffffffffffffffffffffffffffff167f432384862bede852a59e22cb64d7e458b82d14cbf1efa96c31f1361c830e5b5386604051610f839190611c08565b60405180910390a25050505050565b60066020528060005260406000206000915090505481565b600081118015610fbc57506002548111155b610ffb576040517f08c379a0000000000000000000000000000000000000000000000000000000008152600401610ff290611f50565b60405180910390fd5b600073ffffffffffffffffffffffffffffffffffffffff166003600083815260200190815260200160002060009054906101000a900473ffffffffffffffffffffffffffffffffffffffff1673ffffffffffffffffffffffffffffffffffffffff161461109d576040517f08c379a000000000000000000000000000000000000000000000000000000000815260040161109490612315565b60405180910390fd5b6000600460003373ffffffffffffffffffffffffffffffffffffffff1673ffffffffffffffffffffffffffffffffffffffff168152602001908152602001600020541461111f576040517f08c379a000000000000000000000000000000000000000000000000000000000815260040161111690612381565b60405180910390fd5b6001543414611163576040517f08c379a000000000000000000000000000000000000000000000000000000000815260040161115a906123ed565b60405180910390fd5b6000600a60015461117491906120a6565b905060008060009054906101000a900473ffffffffffffffffffffffffffffffffffffffff1673ffffffffffffffffffffffffffffffffffffffff16826040516111bd906121dc565b60006040518083038185875af1925050503d80600081146111fa576040519150601f19603f3d011682016040523d82523d6000602084013e6111ff565b606091505b5050905080611243576040517f08c379a000000000000000000000000000000000000000000000000000000000815260040161123a906122a9565b60405180910390fd5b336003600085815260200190815260200160002060006101000a81548173ffffffffffffffffffffffffffffffffffffffff021916908373ffffffffffffffffffffffffffffffffffffffff16021790555082600460003373ffffffffffffffffffffffffffffffffffffffff1673ffffffffffffffffffffffffffffffffffffffff168152602001908152602001600020819055503373ffffffffffffffffffffffffffffffffffffffff167f0668f5b446eb814fe35b3206f43f14bd8567ba04ddaf7a3ee56516929ab22ccb8460405161131f9190611c08565b60405180910390a2505050565b60008054906101000a900473ffffffffffffffffffffffffffffffffffffffff1681565b600060066000838152602001908152602001600020549050600081116113ab576040517f08c379a00000000000000000000000000000000000000000000000000000000081526004016113a290612459565b60405180910390fd5b3373ffffffffffffffffffffffffffffffffffffffff166003600084815260200190815260200160002060009054906101000a900473ffffffffffffffffffffffffffffffffffffffff1673ffffffffffffffffffffffffffffffffffffffff160361144c576040517f08c379a0000000000000000000000000000000000000000000000000000000008152600401611443906124c5565b60405180910390fd5b6000600460003373ffffffffffffffffffffffffffffffffffffffff1673ffffffffffffffffffffffffffffffffffffffff16815260200190815260200160002054146114ce576040517f08c379a00000000000000000000000000000000000000000000000000000000081526004016114c590612381565b60405180910390fd5b803414611510576040517f08c379a000000000000000000000000000000000000000000000000000000000815260040161150790612531565b60405180910390fd5b60006003600084815260200190815260200160002060009054906101000a900473ffffffffffffffffffffffffffffffffffffffff169050600073ffffffffffffffffffffffffffffffffffffffff168173ffffffffffffffffffffffffffffffffffffffff16036115b7576040517f08c379a00000000000000000000000000000000000000000000000000000000081526004016115ae9061259d565b60405180910390fd5b6000600a836115c691906120a6565b9050600081846115d691906120d7565b905060008373ffffffffffffffffffffffffffffffffffffffff16826040516115fe906121dc565b60006040518083038185875af1925050503d806000811461163b576040519150601f19603f3d011682016040523d82523d6000602084013e611640565b606091505b5050905080611684576040517f08c379a000000000000000000000000000000000000000000000000000000000815260040161167b90612609565b60405180910390fd5b60008060009054906101000a900473ffffffffffffffffffffffffffffffffffffffff1673ffffffffffffffffffffffffffffffffffffffff16846040516116cb906121dc565b60006040518083038185875af1925050503d8060008114611708576040519150601f19603f3d011682016040523d82523d6000602084013e61170d565b606091505b5050905080611751576040517f08c379a0000000000000000000000000000000000000000000000000000000008152600401611748906122a9565b60405180910390fd5b6000600460008773ffffffffffffffffffffffffffffffffffffffff1673ffffffffffffffffffffffffffffffffffffffff16815260200190815260200160002081905550336003600089815260200190815260200160002060006101000a81548173ffffffffffffffffffffffffffffffffffffffff021916908373ffffffffffffffffffffffffffffffffffffffff16021790555086600460003373ffffffffffffffffffffffffffffffffffffffff1673ffffffffffffffffffffffffffffffffffffffff1681526020019081526020016000208190555060066000888152602001908152602001600020600090558473ffffffffffffffffffffffffffffffffffffffff163373ffffffffffffffffffffffffffffffffffffffff167f7cc013d55e1a272aceec16db6b27161d626b2c142b3bbdc735f8719ac004719a89896040516118a2929190611edb565b60405180910390a350505050505050565b60046020528060005260406000206000915090505481565b6000600460003373ffffffffffffffffffffffffffffffffffffffff1673ffffffffffffffffffffffffffffffffffffffff16815260200190815260200160002054905060008103611952576040517f08c379a000000000000000000000000000000000000000000000000000000000815260040161194990611ebb565b60405180910390fd5b60006006600083815260200190815260200160002054146119a8576040517f08c379a000000000000000000000000000000000000000000000000000000000815260040161199f90612675565b60405180910390fd5b8160066000838152602001908152602001600020819055503373ffffffffffffffffffffffffffffffffffffffff167fa9b0e0b53cbc4c02e65fbb66f4ebdd307b6b685b554f05de10ed029f9b2544e58284604051611a08929190611edb565b60405180910390a25050565b6060600080600190505b6002548111611a6557600060066000838152602001908152602001600020541115611a52578180611a4e90612695565b9250505b8080611a5d90612695565b915050611a1e565b5060008167ffffffffffffffff811115611a8257611a816126dd565b5b604051908082528060200260200182016040528015611ab05781602001602082028036833780820191505090505b509050600080600190505b6002548111611b2257600060066000838152602001908152602001600020541115611b0f5780838381518110611af457611af361270c565b5b6020026020010181815250508180611b0b90612695565b9250505b8080611b1a90612695565b915050611abb565b5081935050505090565b60036020528060005260406000206000915054906101000a900473ffffffffffffffffffffffffffffffffffffffff1681565b600080fd5b600073ffffffffffffffffffffffffffffffffffffffff82169050919050565b6000611b8f82611b64565b9050919050565b611b9f81611b84565b8114611baa57600080fd5b50565b600081359050611bbc81611b96565b92915050565b600060208284031215611bd857611bd7611b5f565b5b6000611be684828501611bad565b91505092915050565b6000819050919050565b611c0281611bef565b82525050565b6000602082019050611c1d6000830184611bf9565b92915050565b611c2c81611bef565b8114611c3757600080fd5b50565b600081359050611c4981611c23565b92915050565b600060208284031215611c6557611c64611b5f565b5b6000611c7384828501611c3a565b91505092915050565b611c8581611b84565b82525050565b6000602082019050611ca06000830184611c7c565b92915050565b600081519050919050565b600082825260208201905092915050565b6000819050602082019050919050565b611cdb81611bef565b82525050565b6000611ced8383611cd2565b60208301905092915050565b6000602082019050919050565b6000611d1182611ca6565b611d1b8185611cb1565b9350611d2683611cc2565b8060005b83811015611d57578151611d3e8882611ce1565b9750611d4983611cf9565b925050600181019050611d2a565b5085935050505092915050565b60006020820190508181036000830152611d7e8184611d06565b905092915050565b600082825260208201905092915050565b7f4e6f2076616c69642073776170206f6666657220666f756e6400000000000000600082015250565b6000611dcd601983611d86565b9150611dd882611d97565b602082019050919050565b60006020820190508181036000830152611dfc81611dc0565b9050919050565b7f506172746e657220646f6573206e6f74206f776e2061207469636b6574000000600082015250565b6000611e39601d83611d86565b9150611e4482611e03565b602082019050919050565b60006020820190508181036000830152611e6881611e2c565b9050919050565b7f596f7520646f206e6f74206f776e2061207469636b6574000000000000000000600082015250565b6000611ea5601783611d86565b9150611eb082611e6f565b602082019050919050565b60006020820190508181036000830152611ed481611e98565b9050919050565b6000604082019050611ef06000830185611bf9565b611efd6020830184611bf9565b9392505050565b7f496e76616c6964207469636b6574204944000000000000000000000000000000600082015250565b6000611f3a601183611d86565b9150611f4582611f04565b602082019050919050565b60006020820190508181036000830152611f6981611f2d565b9050919050565b7f43616e6e6f742073776170207769746820796f757273656c6600000000000000600082015250565b6000611fa6601983611d86565b9150611fb182611f70565b602082019050919050565b60006020820190508181036000830152611fd581611f99565b9050919050565b7f53776170206f6666657220616c72656164792065786973747300000000000000600082015250565b6000612012601983611d86565b915061201d82611fdc565b602082019050919050565b6000602082019050818103600083015261204181612005565b9050919050565b7f4e487b7100000000000000000000000000000000000000000000000000000000600052601260045260246000fd5b7f4e487b7100000000000000000000000000000000000000000000000000000000600052601160045260246000fd5b60006120b182611bef565b91506120bc83611bef565b9250826120cc576120cb612048565b5b828204905092915050565b60006120e282611bef565b91506120ed83611bef565b925082820390508181111561210557612104612077565b5b92915050565b600061211682611bef565b915061212183611bef565b925082820190508082111561213957612138612077565b5b92915050565b7f436f6e74726163742068617320696e73756666696369656e742066756e647300600082015250565b6000612175601f83611d86565b91506121808261213f565b602082019050919050565b600060208201905081810360008301526121a481612168565b9050919050565b600081905092915050565b50565b60006121c66000836121ab565b91506121d1826121b6565b600082019050919050565b60006121e7826121b9565b9150819050919050565b7f526566756e6420746f2075736572206661696c65640000000000000000000000600082015250565b6000612227601583611d86565b9150612232826121f1565b602082019050919050565b600060208201905081810360008301526122568161221a565b9050919050565b7f5472616e7366657220746f206f776e6572206661696c65640000000000000000600082015250565b6000612293601883611d86565b915061229e8261225d565b602082019050919050565b600060208201905081810360008301526122c281612286565b9050919050565b7f5469636b657420616c726561647920736f6c6400000000000000000000000000600082015250565b60006122ff601383611d86565b915061230a826122c9565b602082019050919050565b6000602082019050818103600083015261232e816122f2565b9050919050565b7f596f7520616c7265616479206f776e2061207469636b65740000000000000000600082015250565b600061236b601883611d86565b915061237682612335565b602082019050919050565b6000602082019050818103600083015261239a8161235e565b9050919050565b7f496e636f7272656374207469636b657420707269636500000000000000000000600082015250565b60006123d7601683611d86565b91506123e2826123a1565b602082019050919050565b60006020820190508181036000830152612406816123ca565b9050919050565b7f5469636b6574206e6f7420666f7220726573616c650000000000000000000000600082015250565b6000612443601583611d86565b915061244e8261240d565b602082019050919050565b6000602082019050818103600083015261247281612436565b9050919050565b7f596f7520616c7265616479206f776e2074686973207469636b65740000000000600082015250565b60006124af601b83611d86565b91506124ba82612479565b602082019050919050565b600060208201905081810360008301526124de816124a2565b9050919050565b7f496e636f727265637420726573616c6520707269636500000000000000000000600082015250565b600061251b601683611d86565b9150612526826124e5565b602082019050919050565b6000602082019050818103600083015261254a8161250e565b9050919050565b7f496e76616c6964207469636b6574206f776e6572000000000000000000000000600082015250565b6000612587601483611d86565b915061259282612551565b602082019050919050565b600060208201905081810360008301526125b68161257a565b9050919050565b7f5472616e7366657220746f2073656c6c6572206661696c656400000000000000600082015250565b60006125f3601983611d86565b91506125fe826125bd565b602082019050919050565b60006020820190508181036000830152612622816125e6565b9050919050565b7f5469636b657420616c7265616479206f6e20726573616c650000000000000000600082015250565b600061265f601883611d86565b915061266a82612629565b602082019050919050565b6000602082019050818103600083015261268e81612652565b9050919050565b60006126a082611bef565b91507fffffffffffffffffffffffffffffffffffffffffffffffffffffffffffffffff82036126d2576126d1612077565b5b600182019050919050565b7f4e487b7100000000000000000000000000000000000000000000000000000000600052604160045260246000fd5b7f4e487b7100000000000000000000000000000000000000000000000000000000600052603260045260246000fdfea2646970667358221220aba64bb5787f2bfefeaa494d73bf5cccb1873f1da2d515ef6f5aa7dd4035ea2d64736f6c63430008110033",
  "immutableReferences": {},
  "source": "// SPDX-License-Identifier: UNLICENSED\npragma solidity ^0.8.17;\n\ncontract TicketSale {\n    address public owner;\n    uint public ticketPrice;\n    uint public numTickets;\n    \n    // Mappings to track ticket ownership and resale listings\n    mapping(uint => address) public ticketOwners;\n    mapping(address => uint) public ticketsOwned;\n    mapping(address => address) public swapOffers;\n    mapping(uint => uint) public resaleTickets;\n\n    // Events for better tracking and frontend integration\n    event TicketPurchased(address indexed buyer, uint ticketId);\n    event SwapOffered(address indexed offerer, address indexed partner, uint ticketId);\n    event SwapAccepted(address indexed accepter, address indexed partner, uint myTicketId, uint partnerTicketId);\n    event TicketResaled(address indexed owner, uint ticketId, uint price);\n    event ResaleAccepted(address indexed buyer, address indexed seller, uint ticketId, uint price);\n    event TicketReturned(address indexed owner, uint ticketId);\n\n    constructor(uint _numTickets, uint _price) {\n        owner = msg.sender;\n        ticketPrice = _price;\n        numTickets = _numTickets;\n    }\n\n    // Buy a ticket\n    function buyTicket(uint ticketId) public payable {\n        require(ticketId > 0 && ticketId <= numTickets, \"Invalid ticket ID\");\n        require(ticketOwners[ticketId] == address(0), \"Ticket already sold\");\n        require(ticketsOwned[msg.sender] == 0, \"You already own a ticket\");\n        require(msg.value == ticketPrice, \"Incorrect ticket price\");\n\n        // Calculate service fee (10%)\n        uint serviceFee = ticketPrice / 10; // 0.001 ETH if ticketPrice is 0.01 ETH\n\n        // Transfer service fee to owner\n        (bool successOwner, ) = owner.call{value: serviceFee}(\"\");\n        require(successOwner, \"Transfer to owner failed\");\n\n        // The remaining 0.009 ETH stays in the contract as refund pool\n\n        // Update ownership mappings\n        ticketOwners[ticketId] = msg.sender;\n        ticketsOwned[msg.sender] = ticketId;\n\n        // Emit event\n        emit TicketPurchased(msg.sender, ticketId);\n    }\n\n    // Get the ticket ID owned by a person\n    function getTicketOf(address person) public view returns (uint) {\n        return ticketsOwned[person];\n    }\n\n    // Offer a swap with another user's ticket\n    function offerSwap(uint ticketId) public {\n        require(ticketsOwned[msg.sender] != 0, \"You do not own a ticket\");\n        require(ticketOwners[ticketId] != address(0), \"Invalid ticket ID\");\n        address partner = ticketOwners[ticketId];\n        require(partner != msg.sender, \"Cannot swap with yourself\");\n        require(swapOffers[partner] == address(0), \"Swap offer already exists\");\n\n        swapOffers[partner] = msg.sender;\n\n        emit SwapOffered(msg.sender, partner, ticketId);\n    }\n\n    // Accept a swap offer\n    function acceptSwap(uint partnerTicketId) public {\n        address partner = ticketOwners[partnerTicketId];\n        require(swapOffers[msg.sender] == partner, \"No valid swap offer found\");\n        require(ticketsOwned[partner] != 0, \"Partner does not own a ticket\");\n        require(ticketsOwned[msg.sender] != 0, \"You do not own a ticket\");\n\n        uint myTicket = ticketsOwned[msg.sender];\n        uint partnerTicket = ticketsOwned[partner];\n\n        // Swap tickets\n        ticketsOwned[msg.sender] = partnerTicket;\n        ticketsOwned[partner] = myTicket;\n        ticketOwners[myTicket] = partner;\n        ticketOwners[partnerTicket] = msg.sender;\n\n        // Remove swap offer\n        delete swapOffers[msg.sender];\n\n        emit SwapAccepted(msg.sender, partner, myTicket, partnerTicket);\n    }\n\n    // Resale a ticket\n    function resaleTicket(uint price) public {\n        uint ticketId = ticketsOwned[msg.sender];\n        require(ticketId != 0, \"You do not own a ticket\");\n        require(resaleTickets[ticketId] == 0, \"Ticket already on resale\");\n\n        resaleTickets[ticketId] = price;\n\n        emit TicketResaled(msg.sender, ticketId, price);\n    }\n\n    // Accept a resale offer\n    function acceptResale(uint ticketId) public payable {\n        uint resalePrice = resaleTickets[ticketId];\n        require(resalePrice > 0, \"Ticket not for resale\");\n        require(ticketOwners[ticketId] != msg.sender, \"You already own this ticket\");\n        require(ticketsOwned[msg.sender] == 0, \"You already own a ticket\");\n        require(msg.value == resalePrice, \"Incorrect resale price\");\n\n        address currentOwner = ticketOwners[ticketId];\n        require(currentOwner != address(0), \"Invalid ticket owner\");\n\n        uint serviceFee = resalePrice / 10;\n        uint sellerAmount = resalePrice - serviceFee;\n\n        // Transfer funds\n        (bool successSeller, ) = currentOwner.call{value: sellerAmount}(\"\");\n        require(successSeller, \"Transfer to seller failed\");\n\n        (bool successOwner, ) = owner.call{value: serviceFee}(\"\");\n        require(successOwner, \"Transfer to owner failed\");\n\n        // Transfer ownership\n        ticketsOwned[currentOwner] = 0;\n        ticketOwners[ticketId] = msg.sender;\n        ticketsOwned[msg.sender] = ticketId;\n\n        // Remove resale listing\n        delete resaleTickets[ticketId];\n\n        emit ResaleAccepted(msg.sender, currentOwner, ticketId, resalePrice);\n    }\n\n    // Check all tickets on resale\n    function checkResale() public view returns (uint[] memory) {\n        uint count = 0;\n        for (uint i = 1; i <= numTickets; i++) {\n            if (resaleTickets[i] > 0) {\n                count++;\n            }\n        }\n\n        uint[] memory resaleList = new uint[](count);\n        uint index = 0;\n        for (uint i = 1; i <= numTickets; i++) {\n            if (resaleTickets[i] > 0) {\n                resaleList[index] = i;\n                index++;\n            }\n        }\n        return resaleList;\n    }\n\n    // Return a ticket and receive a refund minus service fee\n    function returnTicket() public {\n    uint ticketId = ticketsOwned[msg.sender];\n    require(ticketId != 0, \"You do not own a ticket\");\n\n    // Calculate refund and service fee\n    uint serviceFee = ticketPrice / 10; // 10% service fee\n    uint refundAmount = ticketPrice - serviceFee; // 0.009 ETH\n\n    // Ensure the contract has enough balance to process the refund\n    require(address(this).balance >= refundAmount + serviceFee, \"Contract has insufficient funds\");\n\n    // Remove ownership\n    ticketsOwned[msg.sender] = 0;\n    ticketOwners[ticketId] = address(0);\n\n    // Transfer refund to the user\n    (bool successRefund, ) = msg.sender.call{value: refundAmount}(\"\");\n    require(successRefund, \"Refund to user failed\");\n\n    // Transfer service fee to the owner\n    (bool successOwner, ) = owner.call{value: serviceFee}(\"\");\n    require(successOwner, \"Transfer to owner failed\");\n\n    // Emit event\n    emit TicketReturned(msg.sender, ticketId);\n    }\n    // Fallback function to accept Ether\n    receive() external payable {}\n}\n",
  "sourcePath": "C:\\Users\\Rio\\Desktop\\Project-3-main\\contracts\\TicketSale.sol",
  "compiler": {
    "name": "solc",
    "version": "0.8.17+commit.8df45f5f.Emscripten.clang"
  },
  "schemaVersion": "3.4.16",
  "updatedAt": "2024-12-10T07:45:57.163Z",
  "networkType": "ethereum",
  "devdoc": {
    "kind": "dev",
    "methods": {},
    "version": 1
  },
  "userdoc": {
    "kind": "user",
    "methods": {},
    "version": 1
  }
}