{
  "contractName": "TicketSale",
  "abi": [
    {
      "inputs": [
        {
          "internalType": "uint256",
          "name": "_numTickets",
          "type": "uint256"
        },
        {
          "internalType": "uint256",
          "name": "_price",
          "type": "uint256"
        }
      ],
      "stateMutability": "nonpayable",
      "type": "constructor"
    },
    {
      "inputs": [],
      "name": "numTickets",
      "outputs": [
        {
          "internalType": "uint256",
          "name": "",
          "type": "uint256"
        }
      ],
      "stateMutability": "view",
      "type": "function",
      "constant": true
    },
    {
      "inputs": [],
      "name": "owner",
      "outputs": [
        {
          "internalType": "address",
          "name": "",
          "type": "address"
        }
      ],
      "stateMutability": "view",
      "type": "function",
      "constant": true
    },
    {
      "inputs": [
        {
          "internalType": "uint256",
          "name": "",
          "type": "uint256"
        }
      ],
      "name": "resaleTickets",
      "outputs": [
        {
          "internalType": "uint256",
          "name": "",
          "type": "uint256"
        }
      ],
      "stateMutability": "view",
      "type": "function",
      "constant": true
    },
    {
      "inputs": [
        {
          "internalType": "address",
          "name": "",
          "type": "address"
        }
      ],
      "name": "swapOffers",
      "outputs": [
        {
          "internalType": "address",
          "name": "",
          "type": "address"
        }
      ],
      "stateMutability": "view",
      "type": "function",
      "constant": true
    },
    {
      "inputs": [
        {
          "internalType": "uint256",
          "name": "",
          "type": "uint256"
        }
      ],
      "name": "ticketOwners",
      "outputs": [
        {
          "internalType": "address",
          "name": "",
          "type": "address"
        }
      ],
      "stateMutability": "view",
      "type": "function",
      "constant": true
    },
    {
      "inputs": [],
      "name": "ticketPrice",
      "outputs": [
        {
          "internalType": "uint256",
          "name": "",
          "type": "uint256"
        }
      ],
      "stateMutability": "view",
      "type": "function",
      "constant": true
    },
    {
      "inputs": [
        {
          "internalType": "address",
          "name": "",
          "type": "address"
        }
      ],
      "name": "ticketsOwned",
      "outputs": [
        {
          "internalType": "uint256",
          "name": "",
          "type": "uint256"
        }
      ],
      "stateMutability": "view",
      "type": "function",
      "constant": true
    },
    {
      "inputs": [
        {
          "internalType": "uint256",
          "name": "ticketId",
          "type": "uint256"
        }
      ],
      "name": "buyTicket",
      "outputs": [],
      "stateMutability": "payable",
      "type": "function",
      "payable": true
    },
    {
      "inputs": [
        {
          "internalType": "address",
          "name": "person",
          "type": "address"
        }
      ],
      "name": "getTicketOf",
      "outputs": [
        {
          "internalType": "uint256",
          "name": "",
          "type": "uint256"
        }
      ],
      "stateMutability": "view",
      "type": "function",
      "constant": true
    },
    {
      "inputs": [
        {
          "internalType": "uint256",
          "name": "ticketId",
          "type": "uint256"
        }
      ],
      "name": "offerSwap",
      "outputs": [],
      "stateMutability": "nonpayable",
      "type": "function"
    },
    {
      "inputs": [],
      "name": "acceptSwap",
      "outputs": [],
      "stateMutability": "nonpayable",
      "type": "function"
    },
    {
      "inputs": [
        {
          "internalType": "uint256",
          "name": "price",
          "type": "uint256"
        }
      ],
      "name": "resaleTicket",
      "outputs": [],
      "stateMutability": "nonpayable",
      "type": "function"
    },
    {
      "inputs": [
        {
          "internalType": "uint256",
          "name": "ticketId",
          "type": "uint256"
        }
      ],
      "name": "acceptResale",
      "outputs": [],
      "stateMutability": "payable",
      "type": "function",
      "payable": true
    },
    {
      "inputs": [],
      "name": "checkResale",
      "outputs": [
        {
          "internalType": "uint256[]",
          "name": "",
          "type": "uint256[]"
        }
      ],
      "stateMutability": "view",
      "type": "function",
      "constant": true
    }
  ],
  "bytecode": "0x608060405234801561001057600080fd5b50604051610de2380380610de283398101604081905261002f9161004c565b600080546001600160a01b03191633179055600155600255610070565b6000806040838503121561005f57600080fd5b505080516020909101519092909150565b610d638061007f6000396000f3fe6080604052600436106100dd5760003560e01c806367dd74ca1161007f578063951e202111610059578063951e20211461024f578063a3c1a1fe1461027c578063c4a4be831461029c578063eb2dbcf6146102be57600080fd5b806367dd74ca146102095780638da5cb5b1461021c578063943ba2121461023c57600080fd5b8063353d90ec116100bb578063353d90ec1461018f578063406b2c2c146101a55780634700a5cd146101c7578063675b2e74146101dc57600080fd5b80630412f4ab146100e25780631209b1f61461012b5780632e62864a14610141575b600080fd5b3480156100ee57600080fd5b506101186100fd366004610bd3565b6001600160a01b031660009081526004602052604090205490565b6040519081526020015b60405180910390f35b34801561013757600080fd5b5061011860015481565b34801561014d57600080fd5b5061017761015c366004610bd3565b6006602052600090815260409020546001600160a01b031681565b6040516001600160a01b039091168152602001610122565b34801561019b57600080fd5b5061011860025481565b3480156101b157600080fd5b506101c56101c0366004610c03565b6102f4565b005b3480156101d357600080fd5b506101c561048f565b3480156101e857600080fd5b506101186101f7366004610c03565b60056020526000908152604090205481565b6101c5610217366004610c03565b6105f4565b34801561022857600080fd5b50600054610177906001600160a01b031681565b6101c561024a366004610c03565b610778565b34801561025b57600080fd5b5061011861026a366004610bd3565b60046020526000908152604090205481565b34801561028857600080fd5b506101c5610297366004610c03565b610a9d565b3480156102a857600080fd5b506102b1610ade565b6040516101229190610c1c565b3480156102ca57600080fd5b506101776102d9366004610c03565b6003602052600090815260409020546001600160a01b031681565b33600090815260046020526040812054900361032b5760405162461bcd60e51b815260040161032290610c60565b60405180910390fd5b6000818152600360205260409020546001600160a01b03166103835760405162461bcd60e51b8152602060048201526011602482015270125b9d985b1a59081d1a58dad95d081251607a1b6044820152606401610322565b6000818152600360205260409020546001600160a01b03163381036103ea5760405162461bcd60e51b815260206004820152601960248201527f43616e6e6f742073776170207769746820796f757273656c66000000000000006044820152606401610322565b6001600160a01b0381811660009081526006602052604090205416156104655760405162461bcd60e51b815260206004820152602a60248201527f53776170206f6666657220616c72656164792065786973747320666f7220746860448201526934b9903830b93a3732b960b11b6064820152608401610322565b6001600160a01b0316600090815260066020526040902080546001600160a01b0319163317905550565b336000908152600660205260409020546001600160a01b0316806104f55760405162461bcd60e51b815260206004820152601960248201527f4e6f2076616c69642073776170206f6666657220666f756e64000000000000006044820152606401610322565b6001600160a01b038116600090815260046020526040812054900361055c5760405162461bcd60e51b815260206004820152601d60248201527f506172746e657220646f6573206e6f74206f776e2061207469636b65740000006044820152606401610322565b33600090815260046020526040812054900361058a5760405162461bcd60e51b815260040161032290610c60565b33600081815260046020908152604080832080546001600160a01b03969096168085528285208054928390558790559584526003835281842080546001600160a01b0319908116909717905583528083208054861685179055928252600690522080549091169055565b60008111801561060657506002548111155b6106465760405162461bcd60e51b8152602060048201526011602482015270125b9d985b1a59081d1a58dad95d081251607a1b6044820152606401610322565b6000818152600360205260409020546001600160a01b0316156106a15760405162461bcd60e51b8152602060048201526013602482015272151a58dad95d08185b1c9958591e481cdbdb19606a1b6044820152606401610322565b33600090815260046020526040902054156106fe5760405162461bcd60e51b815260206004820152601860248201527f596f7520616c7265616479206f776e2061207469636b657400000000000000006044820152606401610322565b60015434146107485760405162461bcd60e51b8152602060048201526016602482015275496e636f7272656374207469636b657420707269636560501b6044820152606401610322565b600081815260036020908152604080832080546001600160a01b0319163390811790915583526004909152902055565b600081815260056020526040902054806107df5760405162461bcd60e51b815260206004820152602260248201527f5469636b6574206973206e6f7420617661696c61626c6520666f7220726573616044820152616c6560f01b6064820152608401610322565b600082815260036020526040902054336001600160a01b03909116036108475760405162461bcd60e51b815260206004820152601b60248201527f596f7520616c7265616479206f776e2074686973207469636b657400000000006044820152606401610322565b80341461088f5760405162461bcd60e51b8152602060048201526016602482015275496e636f727265637420726573616c6520707269636560501b6044820152606401610322565b600061089c600a83610cad565b905060006108aa8284610ccf565b6000858152600360205260409020549091506001600160a01b0316806109095760405162461bcd60e51b815260206004820152601460248201527324b73b30b634b2103a34b1b5b2ba1037bbb732b960611b6044820152606401610322565b6001600160a01b03811660008181526004602081815260408084208490558984526003825280842080546001600160a01b0319163390811790915584529190528082208890555190919084908381818185875af1925050503d806000811461098d576040519150601f19603f3d011682016040523d82523d6000602084013e610992565b606091505b50509050806109e35760405162461bcd60e51b815260206004820152601960248201527f5472616e7366657220746f2073656c6c6572206661696c6564000000000000006044820152606401610322565b600080546040516001600160a01b039091169086908381818185875af1925050503d8060008114610a30576040519150601f19603f3d011682016040523d82523d6000602084013e610a35565b606091505b5050905080610a865760405162461bcd60e51b815260206004820152601860248201527f5472616e7366657220746f206f776e6572206661696c656400000000000000006044820152606401610322565b505050600093845250506005602052506040812055565b3360009081526004602052604081205490819003610acd5760405162461bcd60e51b815260040161032290610c60565b600090815260056020526040902055565b6060600060015b6002548111610b225760008181526005602052604090205415610b105781610b0c81610ce8565b9250505b80610b1a81610ce8565b915050610ae5565b5060008167ffffffffffffffff811115610b3e57610b3e610d01565b604051908082528060200260200182016040528015610b67578160200160208202803683370190505b509050600060015b6002548111610bca5760008181526005602052604090205415610bb85780838381518110610b9f57610b9f610d17565b602090810291909101015281610bb481610ce8565b9250505b80610bc281610ce8565b915050610b6f565b50909392505050565b600060208284031215610be557600080fd5b81356001600160a01b0381168114610bfc57600080fd5b9392505050565b600060208284031215610c1557600080fd5b5035919050565b6020808252825182820181905260009190848201906040850190845b81811015610c5457835183529284019291840191600101610c38565b50909695505050505050565b60208082526017908201527f596f7520646f206e6f74206f776e2061207469636b6574000000000000000000604082015260600190565b634e487b7160e01b600052601160045260246000fd5b600082610cca57634e487b7160e01b600052601260045260246000fd5b500490565b81810381811115610ce257610ce2610c97565b92915050565b600060018201610cfa57610cfa610c97565b5060010190565b634e487b7160e01b600052604160045260246000fd5b634e487b7160e01b600052603260045260246000fdfea264697066735822122027e14e3f1f54e4d432c626dc8f2f2c321d6fa3caf9e80d9f6a13e8401be426b564736f6c63430008110033",
  "immutableReferences": {},
  "source": "// SPDX-License-Identifier: UNLICENSED\r\npragma solidity ^0.8.17;\r\n\r\ncontract TicketSale {\r\n    // Contract variables\r\n    address public owner;\r\n    uint public ticketPrice;\r\n    uint public numTickets;\r\n    mapping(uint => address) public ticketOwners; // Mapping from ticketId to owner's address\r\n    mapping(address => uint) public ticketsOwned; // Mapping from address to ticketId\r\n    mapping(uint => uint) public resaleTickets; // Mapping from ticketId to resale price\r\n    mapping(address => address) public swapOffers; // Mapping to keep track of swap offers\r\n\r\n    // Constructor\r\n    constructor(uint _numTickets, uint _price) {\r\n        owner = msg.sender;\r\n        ticketPrice = _price;\r\n        numTickets = _numTickets;\r\n    }\r\n\r\n    // Buy Ticket\r\n    function buyTicket(uint ticketId) public payable {\r\n        require(ticketId > 0 && ticketId <= numTickets, \"Invalid ticket ID\");\r\n        require(ticketOwners[ticketId] == address(0), \"Ticket already sold\");\r\n        require(ticketsOwned[msg.sender] == 0, \"You already own a ticket\");\r\n        require(msg.value == ticketPrice, \"Incorrect ticket price\");\r\n\r\n        // Assign ticket to buyer\r\n        ticketOwners[ticketId] = msg.sender;\r\n        ticketsOwned[msg.sender] = ticketId;\r\n    }\r\n\r\n    // Get Ticket ID owned by an address\r\n    function getTicketOf(address person) public view returns (uint) {\r\n        return ticketsOwned[person];\r\n    }\r\n\r\n    // Offer Swap\r\n    function offerSwap(uint ticketId) public {\r\n        require(ticketsOwned[msg.sender] != 0, \"You do not own a ticket\");\r\n        require(ticketOwners[ticketId] != address(0), \"Invalid ticket ID\");\r\n        address partner = ticketOwners[ticketId];\r\n        require(partner != msg.sender, \"Cannot swap with yourself\");\r\n        require(swapOffers[partner] == address(0), \"Swap offer already exists for this partner\");\r\n\r\n        swapOffers[partner] = msg.sender;\r\n    }\r\n\r\n    // Accept Swap Offer\r\n    function acceptSwap() public {\r\n        address partner = swapOffers[msg.sender];\r\n        require(partner != address(0), \"No valid swap offer found\");\r\n        require(ticketsOwned[partner] != 0, \"Partner does not own a ticket\");\r\n        require(ticketsOwned[msg.sender] != 0, \"You do not own a ticket\");\r\n\r\n        uint myTicket = ticketsOwned[msg.sender];\r\n        uint partnerTicket = ticketsOwned[partner];\r\n\r\n        // Perform the swap\r\n        ticketsOwned[msg.sender] = partnerTicket;\r\n        ticketsOwned[partner] = myTicket;\r\n\r\n        ticketOwners[myTicket] = partner;\r\n        ticketOwners[partnerTicket] = msg.sender;\r\n\r\n        // Delete the swap offer\r\n        delete swapOffers[msg.sender];\r\n    }\r\n\r\n    // Resale Ticket\r\n    function resaleTicket(uint price) public {\r\n        uint ticketId = ticketsOwned[msg.sender];\r\n        require(ticketId != 0, \"You do not own a ticket\");\r\n        resaleTickets[ticketId] = price;\r\n    }\r\n\r\n// Accept Resale Ticket\r\n    function acceptResale(uint ticketId) public payable {\r\n        uint resalePrice = resaleTickets[ticketId];\r\n        require(resalePrice > 0, \"Ticket is not available for resale\");\r\n        require(ticketOwners[ticketId] != msg.sender, \"You already own this ticket\");\r\n        require(msg.value == resalePrice, \"Incorrect resale price\");\r\n\r\n        // 10% service fee\r\n        uint serviceFee = resalePrice / 10;\r\n        uint sellerAmount = resalePrice - serviceFee;\r\n        address seller = ticketOwners[ticketId];\r\n        require(seller != address(0), \"Invalid ticket owner\");\r\n\r\n        // Transfer ownership\r\n        ticketsOwned[seller] = 0;\r\n        ticketOwners[ticketId] = msg.sender;\r\n        ticketsOwned[msg.sender] = ticketId;\r\n\r\n        // Pay the seller and the owner\r\n        (bool successSeller, ) = seller.call{value: sellerAmount}(\"\");\r\n        require(successSeller, \"Transfer to seller failed\");\r\n\r\n        (bool successOwner, ) = owner.call{value: serviceFee}(\"\");\r\n        require(successOwner, \"Transfer to owner failed\");\r\n\r\n        // Remove from resale list\r\n        delete resaleTickets[ticketId];\r\n    }\r\n\r\n\r\n    // Check Resale Tickets\r\n    function checkResale() public view returns (uint[] memory) {\r\n        uint count = 0;\r\n        for (uint i = 1; i <= numTickets; i++) {\r\n            if (resaleTickets[i] > 0) {\r\n                count++;\r\n            }\r\n        }\r\n        uint[] memory resaleList = new uint[](count);\r\n        uint index = 0;\r\n        for (uint i = 1; i <= numTickets; i++) {\r\n            if (resaleTickets[i] > 0) {\r\n                resaleList[index] = i;\r\n                index++;\r\n            }\r\n        }\r\n        return resaleList;\r\n    }\r\n}\r\n",
  "sourcePath": "C:\\Users\\Rio\\Desktop\\assignment 3\\TicketSaleProject\\contracts\\TicketSale.sol",
  "compiler": {
    "name": "solc",
    "version": "0.8.17+commit.8df45f5f.Emscripten.clang"
  },
  "schemaVersion": "3.4.16",
  "updatedAt": "2024-10-30T02:15:14.527Z",
  "networkType": "ethereum",
  "devdoc": {
    "kind": "dev",
    "methods": {},
    "version": 1
  },
  "userdoc": {
    "kind": "user",
    "methods": {},
    "version": 1
  }
}