{
  "contractName": "TicketSale",
  "abi": [
    {
      "inputs": [
        {
          "internalType": "uint256",
          "name": "_numTickets",
          "type": "uint256"
        },
        {
          "internalType": "uint256",
          "name": "_price",
          "type": "uint256"
        }
      ],
      "payable": false,
      "stateMutability": "nonpayable",
      "type": "constructor"
    },
    {
      "constant": true,
      "inputs": [],
      "name": "numTickets",
      "outputs": [
        {
          "internalType": "uint256",
          "name": "",
          "type": "uint256"
        }
      ],
      "payable": false,
      "stateMutability": "view",
      "type": "function"
    },
    {
      "constant": true,
      "inputs": [],
      "name": "owner",
      "outputs": [
        {
          "internalType": "address",
          "name": "",
          "type": "address"
        }
      ],
      "payable": false,
      "stateMutability": "view",
      "type": "function"
    },
    {
      "constant": true,
      "inputs": [
        {
          "internalType": "uint256",
          "name": "",
          "type": "uint256"
        }
      ],
      "name": "resaleTickets",
      "outputs": [
        {
          "internalType": "uint256",
          "name": "",
          "type": "uint256"
        }
      ],
      "payable": false,
      "stateMutability": "view",
      "type": "function"
    },
    {
      "constant": true,
      "inputs": [
        {
          "internalType": "address",
          "name": "",
          "type": "address"
        }
      ],
      "name": "swapOffers",
      "outputs": [
        {
          "internalType": "address",
          "name": "",
          "type": "address"
        }
      ],
      "payable": false,
      "stateMutability": "view",
      "type": "function"
    },
    {
      "constant": true,
      "inputs": [
        {
          "internalType": "uint256",
          "name": "",
          "type": "uint256"
        }
      ],
      "name": "ticketOwners",
      "outputs": [
        {
          "internalType": "address",
          "name": "",
          "type": "address"
        }
      ],
      "payable": false,
      "stateMutability": "view",
      "type": "function"
    },
    {
      "constant": true,
      "inputs": [],
      "name": "ticketPrice",
      "outputs": [
        {
          "internalType": "uint256",
          "name": "",
          "type": "uint256"
        }
      ],
      "payable": false,
      "stateMutability": "view",
      "type": "function"
    },
    {
      "constant": true,
      "inputs": [
        {
          "internalType": "address",
          "name": "",
          "type": "address"
        }
      ],
      "name": "ticketsOwned",
      "outputs": [
        {
          "internalType": "uint256",
          "name": "",
          "type": "uint256"
        }
      ],
      "payable": false,
      "stateMutability": "view",
      "type": "function"
    },
    {
      "constant": false,
      "inputs": [
        {
          "internalType": "uint256",
          "name": "ticketId",
          "type": "uint256"
        }
      ],
      "name": "buyTicket",
      "outputs": [],
      "payable": true,
      "stateMutability": "payable",
      "type": "function"
    },
    {
      "constant": true,
      "inputs": [
        {
          "internalType": "address",
          "name": "person",
          "type": "address"
        }
      ],
      "name": "getTicketOf",
      "outputs": [
        {
          "internalType": "uint256",
          "name": "",
          "type": "uint256"
        }
      ],
      "payable": false,
      "stateMutability": "view",
      "type": "function"
    },
    {
      "constant": false,
      "inputs": [
        {
          "internalType": "address",
          "name": "partner",
          "type": "address"
        }
      ],
      "name": "offerSwap",
      "outputs": [],
      "payable": false,
      "stateMutability": "nonpayable",
      "type": "function"
    },
    {
      "constant": false,
      "inputs": [],
      "name": "acceptSwap",
      "outputs": [],
      "payable": false,
      "stateMutability": "nonpayable",
      "type": "function"
    },
    {
      "constant": false,
      "inputs": [
        {
          "internalType": "uint256",
          "name": "price",
          "type": "uint256"
        }
      ],
      "name": "resaleTicket",
      "outputs": [],
      "payable": false,
      "stateMutability": "nonpayable",
      "type": "function"
    },
    {
      "constant": false,
      "inputs": [
        {
          "internalType": "uint256",
          "name": "ticketId",
          "type": "uint256"
        }
      ],
      "name": "acceptResale",
      "outputs": [],
      "payable": true,
      "stateMutability": "payable",
      "type": "function"
    },
    {
      "constant": true,
      "inputs": [],
      "name": "checkResale",
      "outputs": [
        {
          "internalType": "uint256[]",
          "name": "",
          "type": "uint256[]"
        }
      ],
      "payable": false,
      "stateMutability": "view",
      "type": "function"
    }
  ],
  "bytecode": "0x608060405234801561001057600080fd5b5060405161184a38038061184a8339818101604052604081101561003357600080fd5b810190808051906020019092919080519060200190929190505050336000806101000a81548173ffffffffffffffffffffffffffffffffffffffff021916908373ffffffffffffffffffffffffffffffffffffffff1602179055508060018190555081600281905550505061179d806100ad6000396000f3fe6080604052600436106100dd5760003560e01c80638da5cb5b1161007f578063a3c1a1fe11610059578063a3c1a1fe146103ac578063b6761e25146103e7578063c4a4be8314610438578063eb2dbcf6146104a4576100dd565b80638da5cb5b146102c2578063943ba21214610319578063951e202114610347576100dd565b8063353d90ec116100bb578063353d90ec146102035780634700a5cd1461022e578063675b2e741461024557806367dd74ca14610294576100dd565b80630412f4ab146100e25780631209b1f6146101475780632e62864a14610172575b600080fd5b3480156100ee57600080fd5b506101316004803603602081101561010557600080fd5b81019080803573ffffffffffffffffffffffffffffffffffffffff16906020019092919050505061051f565b6040518082815260200191505060405180910390f35b34801561015357600080fd5b5061015c610568565b6040518082815260200191505060405180910390f35b34801561017e57600080fd5b506101c16004803603602081101561019557600080fd5b81019080803573ffffffffffffffffffffffffffffffffffffffff16906020019092919050505061056e565b604051808273ffffffffffffffffffffffffffffffffffffffff1673ffffffffffffffffffffffffffffffffffffffff16815260200191505060405180910390f35b34801561020f57600080fd5b506102186105a1565b6040518082815260200191505060405180910390f35b34801561023a57600080fd5b506102436105a7565b005b34801561025157600080fd5b5061027e6004803603602081101561026857600080fd5b8101908080359060200190929190505050610a97565b6040518082815260200191505060405180910390f35b6102c0600480360360208110156102aa57600080fd5b8101908080359060200190929190505050610aaf565b005b3480156102ce57600080fd5b506102d7610dcd565b604051808273ffffffffffffffffffffffffffffffffffffffff1673ffffffffffffffffffffffffffffffffffffffff16815260200191505060405180910390f35b6103456004803603602081101561032f57600080fd5b8101908080359060200190929190505050610df2565b005b34801561035357600080fd5b506103966004803603602081101561036a57600080fd5b81019080803573ffffffffffffffffffffffffffffffffffffffff169060200190929190505050611246565b6040518082815260200191505060405180910390f35b3480156103b857600080fd5b506103e5600480360360208110156103cf57600080fd5b810190808035906020019092919050505061125e565b005b3480156103f357600080fd5b506104366004803603602081101561040a57600080fd5b81019080803573ffffffffffffffffffffffffffffffffffffffff169060200190929190505050611335565b005b34801561044457600080fd5b5061044d611606565b6040518080602001828103825283818151815260200191508051906020019060200280838360005b83811015610490578082015181840152602081019050610475565b505050509050019250505060405180910390f35b3480156104b057600080fd5b506104dd600480360360208110156104c757600080fd5b81019080803590602001909291905050506116ee565b604051808273ffffffffffffffffffffffffffffffffffffffff1673ffffffffffffffffffffffffffffffffffffffff16815260200191505060405180910390f35b6000600460008373ffffffffffffffffffffffffffffffffffffffff1673ffffffffffffffffffffffffffffffffffffffff168152602001908152602001600020549050919050565b60015481565b60066020528060005260406000206000915054906101000a900473ffffffffffffffffffffffffffffffffffffffff1681565b60025481565b6000600660003373ffffffffffffffffffffffffffffffffffffffff1673ffffffffffffffffffffffffffffffffffffffff16815260200190815260200160002060009054906101000a900473ffffffffffffffffffffffffffffffffffffffff169050600073ffffffffffffffffffffffffffffffffffffffff168173ffffffffffffffffffffffffffffffffffffffff1614156106ae576040517f08c379a00000000000000000000000000000000000000000000000000000000081526004018080602001828103825260198152602001807f4e6f2076616c69642073776170206f6666657220666f756e640000000000000081525060200191505060405180910390fd5b6000600460008373ffffffffffffffffffffffffffffffffffffffff1673ffffffffffffffffffffffffffffffffffffffff168152602001908152602001600020541415610764576040517f08c379a000000000000000000000000000000000000000000000000000000000815260040180806020018281038252601d8152602001807f506172746e657220646f6573206e6f74206f776e2061207469636b657400000081525060200191505060405180910390fd5b6000600460003373ffffffffffffffffffffffffffffffffffffffff1673ffffffffffffffffffffffffffffffffffffffff16815260200190815260200160002054141561081a576040517f08c379a00000000000000000000000000000000000000000000000000000000081526004018080602001828103825260178152602001807f596f7520646f206e6f74206f776e2061207469636b657400000000000000000081525060200191505060405180910390fd5b6000600460003373ffffffffffffffffffffffffffffffffffffffff1673ffffffffffffffffffffffffffffffffffffffff1681526020019081526020016000205490506000600460008473ffffffffffffffffffffffffffffffffffffffff1673ffffffffffffffffffffffffffffffffffffffff16815260200190815260200160002054905080600460003373ffffffffffffffffffffffffffffffffffffffff1673ffffffffffffffffffffffffffffffffffffffff1681526020019081526020016000208190555081600460008573ffffffffffffffffffffffffffffffffffffffff1673ffffffffffffffffffffffffffffffffffffffff16815260200190815260200160002081905550826003600084815260200190815260200160002060006101000a81548173ffffffffffffffffffffffffffffffffffffffff021916908373ffffffffffffffffffffffffffffffffffffffff160217905550336003600083815260200190815260200160002060006101000a81548173ffffffffffffffffffffffffffffffffffffffff021916908373ffffffffffffffffffffffffffffffffffffffff160217905550600660003373ffffffffffffffffffffffffffffffffffffffff1673ffffffffffffffffffffffffffffffffffffffff16815260200190815260200160002060006101000a81549073ffffffffffffffffffffffffffffffffffffffff0219169055600660008473ffffffffffffffffffffffffffffffffffffffff1673ffffffffffffffffffffffffffffffffffffffff16815260200190815260200160002060006101000a81549073ffffffffffffffffffffffffffffffffffffffff0219169055505050565b60056020528060005260406000206000915090505481565b600081118015610ac157506002548111155b610b33576040517f08c379a00000000000000000000000000000000000000000000000000000000081526004018080602001828103825260118152602001807f496e76616c6964207469636b657420494400000000000000000000000000000081525060200191505060405180910390fd5b600073ffffffffffffffffffffffffffffffffffffffff166003600083815260200190815260200160002060009054906101000a900473ffffffffffffffffffffffffffffffffffffffff1673ffffffffffffffffffffffffffffffffffffffff1614610c08576040517f08c379a00000000000000000000000000000000000000000000000000000000081526004018080602001828103825260138152602001807f5469636b657420616c726561647920736f6c640000000000000000000000000081525060200191505060405180910390fd5b6000600460003373ffffffffffffffffffffffffffffffffffffffff1673ffffffffffffffffffffffffffffffffffffffff1681526020019081526020016000205414610cbd576040517f08c379a00000000000000000000000000000000000000000000000000000000081526004018080602001828103825260188152602001807f596f7520616c7265616479206f776e2061207469636b6574000000000000000081525060200191505060405180910390fd5b6001543414610d34576040517f08c379a00000000000000000000000000000000000000000000000000000000081526004018080602001828103825260168152602001807f496e636f7272656374207469636b65742070726963650000000000000000000081525060200191505060405180910390fd5b336003600083815260200190815260200160002060006101000a81548173ffffffffffffffffffffffffffffffffffffffff021916908373ffffffffffffffffffffffffffffffffffffffff16021790555080600460003373ffffffffffffffffffffffffffffffffffffffff1673ffffffffffffffffffffffffffffffffffffffff1681526020019081526020016000208190555050565b6000809054906101000a900473ffffffffffffffffffffffffffffffffffffffff1681565b60006005600083815260200190815260200160002054905060008111610e63576040517f08c379a00000000000000000000000000000000000000000000000000000000081526004018080602001828103825260228152602001806117476022913960400191505060405180910390fd5b3373ffffffffffffffffffffffffffffffffffffffff166003600084815260200190815260200160002060009054906101000a900473ffffffffffffffffffffffffffffffffffffffff1673ffffffffffffffffffffffffffffffffffffffff161415610f38576040517f08c379a000000000000000000000000000000000000000000000000000000000815260040180806020018281038252601b8152602001807f596f7520616c7265616479206f776e2074686973207469636b6574000000000081525060200191505060405180910390fd5b803414610fad576040517f08c379a00000000000000000000000000000000000000000000000000000000081526004018080602001828103825260168152602001807f496e636f727265637420726573616c652070726963650000000000000000000081525060200191505060405180910390fd5b6000600a8281610fb957fe5b0490506000818303905060006003600086815260200190815260200160002060009054906101000a900473ffffffffffffffffffffffffffffffffffffffff169050600073ffffffffffffffffffffffffffffffffffffffff168173ffffffffffffffffffffffffffffffffffffffff16141561109e576040517f08c379a00000000000000000000000000000000000000000000000000000000081526004018080602001828103825260148152602001807f496e76616c6964207469636b6574206f776e657200000000000000000000000081525060200191505060405180910390fd5b6000600460008373ffffffffffffffffffffffffffffffffffffffff1673ffffffffffffffffffffffffffffffffffffffff16815260200190815260200160002081905550336003600087815260200190815260200160002060006101000a81548173ffffffffffffffffffffffffffffffffffffffff021916908373ffffffffffffffffffffffffffffffffffffffff16021790555084600460003373ffffffffffffffffffffffffffffffffffffffff1673ffffffffffffffffffffffffffffffffffffffff168152602001908152602001600020819055508073ffffffffffffffffffffffffffffffffffffffff166108fc839081150290604051600060405180830381858888f193505050501580156111bf573d6000803e3d6000fd5b506000809054906101000a900473ffffffffffffffffffffffffffffffffffffffff1673ffffffffffffffffffffffffffffffffffffffff166108fc849081150290604051600060405180830381858888f19350505050158015611227573d6000803e3d6000fd5b5060056000868152602001908152602001600020600090555050505050565b60046020528060005260406000206000915090505481565b6000600460003373ffffffffffffffffffffffffffffffffffffffff1673ffffffffffffffffffffffffffffffffffffffff1681526020019081526020016000205490506000811415611319576040517f08c379a00000000000000000000000000000000000000000000000000000000081526004018080602001828103825260178152602001807f596f7520646f206e6f74206f776e2061207469636b657400000000000000000081525060200191505060405180910390fd5b8160056000838152602001908152602001600020819055505050565b6000600460003373ffffffffffffffffffffffffffffffffffffffff1673ffffffffffffffffffffffffffffffffffffffff1681526020019081526020016000205414156113eb576040517f08c379a00000000000000000000000000000000000000000000000000000000081526004018080602001828103825260178152602001807f596f7520646f206e6f74206f776e2061207469636b657400000000000000000081525060200191505060405180910390fd5b6000600460008373ffffffffffffffffffffffffffffffffffffffff1673ffffffffffffffffffffffffffffffffffffffff1681526020019081526020016000205414156114a1576040517f08c379a000000000000000000000000000000000000000000000000000000000815260040180806020018281038252601d8152602001807f506172746e657220646f6573206e6f74206f776e2061207469636b657400000081525060200191505060405180910390fd5b600073ffffffffffffffffffffffffffffffffffffffff16600660003373ffffffffffffffffffffffffffffffffffffffff1673ffffffffffffffffffffffffffffffffffffffff16815260200190815260200160002060009054906101000a900473ffffffffffffffffffffffffffffffffffffffff1673ffffffffffffffffffffffffffffffffffffffff1614611585576040517f08c379a00000000000000000000000000000000000000000000000000000000081526004018080602001828103825260258152602001806117226025913960400191505060405180910390fd5b80600660003373ffffffffffffffffffffffffffffffffffffffff1673ffffffffffffffffffffffffffffffffffffffff16815260200190815260200160002060006101000a81548173ffffffffffffffffffffffffffffffffffffffff021916908373ffffffffffffffffffffffffffffffffffffffff16021790555050565b606060008090506000600190505b600254811161164f576000600560008381526020019081526020016000205411156116425781806001019250505b8080600101915050611614565b506060816040519080825280602002602001820160405280156116815781602001602082028038833980820191505090505b50905060008090506000600190505b60025481116116e4576000600560008381526020019081526020016000205411156116d757808383815181106116c257fe5b60200260200101818152505081806001019250505b8080600101915050611690565b5081935050505090565b60036020528060005260406000206000915054906101000a900473ffffffffffffffffffffffffffffffffffffffff168156fe596f7520616c7265616479206861766520612070656e64696e672073776170206f666665725469636b6574206973206e6f7420617661696c61626c6520666f7220726573616c65a265627a7a72315820e7145a696212c414c90d97401e911a9a20afbb0fc23552f958aa5e87cfcd10f464736f6c63430005100032",
  "source": "pragma solidity ^0.5.16;\r\n\r\ncontract TicketSale {\r\n    // Contract variables\r\n    address public owner;\r\n    uint public ticketPrice;\r\n    uint public numTickets;\r\n    mapping(uint => address) public ticketOwners; // Mapping from ticketId to owner's address\r\n    mapping(address => uint) public ticketsOwned; // Mapping from address to ticketId\r\n    mapping(uint => uint) public resaleTickets; // Mapping from ticketId to resale price\r\n    mapping(address => address) public swapOffers; // Mapping to keep track of swap offers\r\n\r\n    // Constructor\r\n    constructor(uint _numTickets, uint _price) public {\r\n        owner = msg.sender;\r\n        ticketPrice = _price;\r\n        numTickets = _numTickets;\r\n    }\r\n\r\n    // Buy Ticket\r\n    function buyTicket(uint ticketId) public payable {\r\n        require(ticketId > 0 && ticketId <= numTickets, \"Invalid ticket ID\");\r\n        require(ticketOwners[ticketId] == address(0), \"Ticket already sold\");\r\n        require(ticketsOwned[msg.sender] == 0, \"You already own a ticket\");\r\n        require(msg.value == ticketPrice, \"Incorrect ticket price\");\r\n\r\n        // Assign ticket to buyer\r\n        ticketOwners[ticketId] = msg.sender;\r\n        ticketsOwned[msg.sender] = ticketId;\r\n    }\r\n\r\n    // Get Ticket ID owned by an address\r\n    function getTicketOf(address person) public view returns (uint) {\r\n        return ticketsOwned[person];\r\n    }\r\n\r\n    // Offer Swap\r\n    function offerSwap(address partner) public {\r\n        require(ticketsOwned[msg.sender] != 0, \"You do not own a ticket\");\r\n        require(ticketsOwned[partner] != 0, \"Partner does not own a ticket\");\r\n        require(swapOffers[msg.sender] == address(0), \"You already have a pending swap offer\");\r\n\r\n        swapOffers[msg.sender] = partner;\r\n    }\r\n\r\n    // Accept Swap Offer\r\n    function acceptSwap() public {\r\n        address partner = swapOffers[msg.sender];\r\n        require(partner != address(0), \"No valid swap offer found\");\r\n        require(ticketsOwned[partner] != 0, \"Partner does not own a ticket\");\r\n        require(ticketsOwned[msg.sender] != 0, \"You do not own a ticket\");\r\n\r\n        uint myTicket = ticketsOwned[msg.sender];\r\n        uint partnerTicket = ticketsOwned[partner];\r\n\r\n        // Perform the swap\r\n        ticketsOwned[msg.sender] = partnerTicket;\r\n        ticketsOwned[partner] = myTicket;\r\n\r\n        ticketOwners[myTicket] = partner;\r\n        ticketOwners[partnerTicket] = msg.sender;\r\n\r\n        // Delete the swap offer\r\n        delete swapOffers[msg.sender];\r\n        delete swapOffers[partner]; // Make sure the partner's swap is also cleared\r\n    }\r\n\r\n    // Resale Ticket\r\n    function resaleTicket(uint price) public {\r\n        uint ticketId = ticketsOwned[msg.sender];\r\n        require(ticketId != 0, \"You do not own a ticket\");\r\n        resaleTickets[ticketId] = price;\r\n    }\r\n\r\n    // Accept Resale Ticket\r\n    function acceptResale(uint ticketId) public payable {\r\n        uint resalePrice = resaleTickets[ticketId];\r\n        require(resalePrice > 0, \"Ticket is not available for resale\");\r\n        require(ticketOwners[ticketId] != msg.sender, \"You already own this ticket\");\r\n        require(msg.value == resalePrice, \"Incorrect resale price\");\r\n\r\n        // 10% service fee\r\n        uint serviceFee = resalePrice / 10;\r\n        uint sellerAmount = resalePrice - serviceFee;\r\n        address seller = ticketOwners[ticketId];\r\n        require(seller != address(0), \"Invalid ticket owner\");\r\n\r\n        // Transfer ownership\r\n        ticketsOwned[seller] = 0;\r\n        ticketOwners[ticketId] = msg.sender;\r\n        ticketsOwned[msg.sender] = ticketId;\r\n\r\n        // Pay the seller\r\n        address(uint160(seller)).transfer(sellerAmount);\r\n        address(uint160(owner)).transfer(serviceFee);\r\n\r\n        // Remove from resale list\r\n        delete resaleTickets[ticketId];\r\n    }\r\n\r\n    // Check Resale Tickets\r\n    function checkResale() public view returns (uint[] memory) {\r\n        uint count = 0;\r\n        for (uint i = 1; i <= numTickets; i++) {\r\n            if (resaleTickets[i] > 0) {\r\n                count++;\r\n            }\r\n        }\r\n        uint[] memory resaleList = new uint[](count);\r\n        uint index = 0;\r\n        for (uint i = 1; i <= numTickets; i++) {\r\n            if (resaleTickets[i] > 0) {\r\n                resaleList[index] = i;\r\n                index++;\r\n            }\r\n        }\r\n        return resaleList;\r\n    }\r\n}\r\n",
  "sourcePath": "C:\\Users\\Rio\\Desktop\\assignment 3\\TicketSaleProject\\contracts\\TicketSale.sol",
  "compiler": {
    "name": "solc",
    "version": "0.5.16+commit.9c3226ce.Emscripten.clang"
  },
  "schemaVersion": "3.4.16",
  "updatedAt": "2024-10-28T00:54:28.862Z",
  "networkType": "ethereum",
  "devdoc": {
    "methods": {}
  },
  "userdoc": {
    "methods": {}
  }
}